{
  "contracts/NewsVerifier.sol": {
    "NewsVerifier": {
      "abi": [
        {
          "inputs": [],
          "stateMutability": "nonpayable",
          "type": "constructor"
        },
        {
          "anonymous": false,
          "inputs": [
            {
              "indexed": true,
              "internalType": "bytes32",
              "name": "articleId",
              "type": "bytes32"
            },
            {
              "indexed": false,
              "internalType": "string",
              "name": "contentHash",
              "type": "string"
            },
            {
              "indexed": false,
              "internalType": "address",
              "name": "publisher",
              "type": "address"
            }
          ],
          "name": "ArticlePublished",
          "type": "event"
        },
        {
          "anonymous": false,
          "inputs": [
            {
              "indexed": true,
              "internalType": "bytes32",
              "name": "articleId",
              "type": "bytes32"
            },
            {
              "indexed": false,
              "internalType": "address",
              "name": "verifier",
              "type": "address"
            }
          ],
          "name": "ArticleVerified",
          "type": "event"
        },
        {
          "anonymous": false,
          "inputs": [
            {
              "indexed": false,
              "internalType": "address",
              "name": "publisher",
              "type": "address"
            }
          ],
          "name": "PublisherAdded",
          "type": "event"
        },
        {
          "anonymous": false,
          "inputs": [
            {
              "indexed": false,
              "internalType": "address",
              "name": "publisher",
              "type": "address"
            }
          ],
          "name": "PublisherRemoved",
          "type": "event"
        },
        {
          "anonymous": false,
          "inputs": [
            {
              "indexed": false,
              "internalType": "address",
              "name": "verifier",
              "type": "address"
            }
          ],
          "name": "VerifierAdded",
          "type": "event"
        },
        {
          "anonymous": false,
          "inputs": [
            {
              "indexed": false,
              "internalType": "address",
              "name": "verifier",
              "type": "address"
            }
          ],
          "name": "VerifierRemoved",
          "type": "event"
        },
        {
          "inputs": [
            {
              "internalType": "address",
              "name": "_publisher",
              "type": "address"
            }
          ],
          "name": "addTrustedPublisher",
          "outputs": [],
          "stateMutability": "nonpayable",
          "type": "function"
        },
        {
          "inputs": [
            {
              "internalType": "address",
              "name": "_verifier",
              "type": "address"
            }
          ],
          "name": "addTrustedVerifier",
          "outputs": [],
          "stateMutability": "nonpayable",
          "type": "function"
        },
        {
          "inputs": [
            {
              "internalType": "bytes32",
              "name": "",
              "type": "bytes32"
            }
          ],
          "name": "articles",
          "outputs": [
            {
              "internalType": "string",
              "name": "contentHash",
              "type": "string"
            },
            {
              "internalType": "uint256",
              "name": "timestamp",
              "type": "uint256"
            },
            {
              "internalType": "address",
              "name": "publisher",
              "type": "address"
            },
            {
              "internalType": "bool",
              "name": "isVerified",
              "type": "bool"
            },
            {
              "internalType": "string",
              "name": "metadataURI",
              "type": "string"
            }
          ],
          "stateMutability": "view",
          "type": "function"
        },
        {
          "inputs": [
            {
              "internalType": "bytes32",
              "name": "_articleId",
              "type": "bytes32"
            }
          ],
          "name": "checkArticleVerification",
          "outputs": [
            {
              "internalType": "bool",
              "name": "exists",
              "type": "bool"
            },
            {
              "internalType": "bool",
              "name": "isVerified",
              "type": "bool"
            },
            {
              "internalType": "uint256",
              "name": "verifierCount",
              "type": "uint256"
            }
          ],
          "stateMutability": "view",
          "type": "function"
        },
        {
          "inputs": [
            {
              "internalType": "bytes32",
              "name": "_articleId",
              "type": "bytes32"
            }
          ],
          "name": "getArticle",
          "outputs": [
            {
              "internalType": "string",
              "name": "contentHash",
              "type": "string"
            },
            {
              "internalType": "uint256",
              "name": "timestamp",
              "type": "uint256"
            },
            {
              "internalType": "address",
              "name": "publisher",
              "type": "address"
            },
            {
              "internalType": "bool",
              "name": "isVerified",
              "type": "bool"
            },
            {
              "internalType": "uint256",
              "name": "verifierCount",
              "type": "uint256"
            },
            {
              "internalType": "string",
              "name": "metadataURI",
              "type": "string"
            }
          ],
          "stateMutability": "view",
          "type": "function"
        },
        {
          "inputs": [],
          "name": "owner",
          "outputs": [
            {
              "internalType": "address",
              "name": "",
              "type": "address"
            }
          ],
          "stateMutability": "view",
          "type": "function"
        },
        {
          "inputs": [
            {
              "internalType": "string",
              "name": "_contentHash",
              "type": "string"
            },
            {
              "internalType": "string",
              "name": "_metadataURI",
              "type": "string"
            }
          ],
          "name": "publishArticle",
          "outputs": [
            {
              "internalType": "bytes32",
              "name": "articleId",
              "type": "bytes32"
            }
          ],
          "stateMutability": "nonpayable",
          "type": "function"
        },
        {
          "inputs": [
            {
              "internalType": "address",
              "name": "_publisher",
              "type": "address"
            }
          ],
          "name": "removeTrustedPublisher",
          "outputs": [],
          "stateMutability": "nonpayable",
          "type": "function"
        },
        {
          "inputs": [
            {
              "internalType": "address",
              "name": "_verifier",
              "type": "address"
            }
          ],
          "name": "removeTrustedVerifier",
          "outputs": [],
          "stateMutability": "nonpayable",
          "type": "function"
        },
        {
          "inputs": [
            {
              "internalType": "address",
              "name": "",
              "type": "address"
            }
          ],
          "name": "trustedPublishers",
          "outputs": [
            {
              "internalType": "bool",
              "name": "",
              "type": "bool"
            }
          ],
          "stateMutability": "view",
          "type": "function"
        },
        {
          "inputs": [
            {
              "internalType": "address",
              "name": "",
              "type": "address"
            }
          ],
          "name": "trustedVerifiers",
          "outputs": [
            {
              "internalType": "bool",
              "name": "",
              "type": "bool"
            }
          ],
          "stateMutability": "view",
          "type": "function"
        },
        {
          "inputs": [
            {
              "internalType": "bytes32",
              "name": "_articleId",
              "type": "bytes32"
            }
          ],
          "name": "verifyArticle",
          "outputs": [],
          "stateMutability": "nonpayable",
          "type": "function"
        }
      ],
      "evm": {
        "bytecode": {
          "linkReferences": {},
          "object": "6080604052348015600f57600080fd5b50600380546001600160a01b031916339081179091556000908152600160208181526040808420805460ff199081168517909155600290925290922080549092161790556110ed806100626000396000f3fe608060405234801561001057600080fd5b50600436106100b45760003560e01c8063801d2cf111610071578063801d2cf1146101bd5780638da5cb5b146101d057806395961f05146101fb5780639c5bbfce1461021c578063b4394a3f1461022f578063f41189ab1461024257600080fd5b806313972957146100b95780631ba395dd14610119578063263198331461013e5780633c9f3d041461017157806350a053cd1461018657806351da8a4f14610199575b600080fd5b6100f76100c7366004610ca1565b60009081526020819052604090206001810154600282015460039092015490151592600160a01b90920460ff1691565b6040805193151584529115156020840152908201526060015b60405180910390f35b61012c610127366004610ca1565b610265565b60405161011096959493929190610d00565b61016161014c366004610d57565b60026020526000908152604090205460ff1681565b6040519015158152602001610110565b61018461017f366004610ca1565b610434565b005b610184610194366004610d57565b610645565b6101ac6101a7366004610ca1565b6106ca565b604051610110959493929190610d87565b6101846101cb366004610d57565b61081b565b6003546101e3906001600160a01b031681565b6040516001600160a01b039091168152602001610110565b61020e610209366004610e1f565b610896565b604051908152602001610110565b61018461022a366004610d57565b610b2d565b61018461023d366004610d57565b610ba8565b610161610250366004610d57565b60016020526000908152604090205460ff1681565b606060008060008060606000806000898152602001908152602001600020905060008160010154116102d75760405162461bcd60e51b8152602060048201526016602482015275105c9d1a58db1948191bd95cc81b9bdd08195e1a5cdd60521b60448201526064015b60405180910390fd5b60018101546002820154600383015483548493926001600160a01b03811692600160a01b90910460ff16916004860190869061031290610e90565b80601f016020809104026020016040519081016040528092919081815260200182805461033e90610e90565b801561038b5780601f106103605761010080835404028352916020019161038b565b820191906000526020600020905b81548152906001019060200180831161036e57829003601f168201915b5050505050955080805461039e90610e90565b80601f01602080910402602001604051908101604052809291908181526020018280546103ca90610e90565b80156104175780601f106103ec57610100808354040283529160200191610417565b820191906000526020600020905b8154815290600101906020018083116103fa57829003601f168201915b505050505090509650965096509650965096505091939550919395565b3360009081526002602052604090205460ff166104aa5760405162461bcd60e51b815260206004820152602e60248201527f4f6e6c792074727573746564207665726966696572732063616e20706572666f60448201526d3936903a3434b99030b1ba34b7b760911b60648201526084016102ce565b600081815260208190526040902060018101546105025760405162461bcd60e51b8152602060048201526016602482015275105c9d1a58db1948191bd95cc81b9bdd08195e1a5cdd60521b60448201526064016102ce565b6000805b600383015481101561055c57336001600160a01b031683600301828154811061053157610531610eca565b6000918252602090912001546001600160a01b031603610554576001915061055c565b600101610506565b5080156105ba5760405162461bcd60e51b815260206004820152602660248201527f596f75206861766520616c726561647920766572696669656420746869732061604482015265727469636c6560d01b60648201526084016102ce565b600382018054600181018255600091825260209091200180546001600160a01b03191633179055600282015460ff600160a01b9091041661060b5760028201805460ff60a01b1916600160a01b1790555b60405133815283907fcb5dc41972394af24d9f016e1c37ea730f4d736af180fb2085b2d4a7b15ede579060200160405180910390a2505050565b6003546001600160a01b0316331461066f5760405162461bcd60e51b81526004016102ce90610ee0565b6001600160a01b038116600081815260026020908152604091829020805460ff1916600117905590519182527f6d05492139c5ea989514a5d2150c028041e5c087e2a39967f67dc7d2655adb8191015b60405180910390a150565b6000602081905290815260409020805481906106e590610e90565b80601f016020809104026020016040519081016040528092919081815260200182805461071190610e90565b801561075e5780601f106107335761010080835404028352916020019161075e565b820191906000526020600020905b81548152906001019060200180831161074157829003601f168201915b5050505060018301546002840154600485018054949592946001600160a01b0383169450600160a01b90920460ff16929161079890610e90565b80601f01602080910402602001604051908101604052809291908181526020018280546107c490610e90565b80156108115780601f106107e657610100808354040283529160200191610811565b820191906000526020600020905b8154815290600101906020018083116107f457829003601f168201915b5050505050905085565b6003546001600160a01b031633146108455760405162461bcd60e51b81526004016102ce90610ee0565b6001600160a01b038116600081815260026020908152604091829020805460ff1916905590519182527f44a3cd4eb5cc5748f6169df057b1cb2ae4c383e87cd94663c430e095d4cba42491016106bf565b3360009081526001602052604081205460ff1661090d5760405162461bcd60e51b815260206004820152602f60248201527f4f6e6c792074727573746564207075626c6973686572732063616e207065726660448201526e37b936903a3434b99030b1ba34b7b760891b60648201526084016102ce565b848433426040516020016109249493929190610f22565b60408051601f198184030181529181528151602092830120600081815292839052912060010154909150156109945760405162461bcd60e51b815260206004820152601660248201527541727469636c6520616c72656164792065786973747360501b60448201526064016102ce565b6040518060c0016040528086868080601f016020809104026020016040519081016040528093929190818152602001838380828437600092018290525093855250504260208401525033604083015260608201819052608090910190604051908082528060200260200182016040528015610a19578160200160208202803683370190505b50815260200184848080601f016020809104026020016040519081016040528093929190818152602001838380828437600092018290525093909452505083815260208190526040902082519091508190610a749082610fb7565b506020828101516001830155604083015160028301805460608601511515600160a01b026001600160a81b03199091166001600160a01b039093169290921791909117905560808301518051610ad09260038501920190610c27565b5060a08201516004820190610ae59082610fb7565b50905050807fcba0b57a0d2e79a98e1109c9204223a0fbe2581a15221fbd18ca7ab6f0b18337868633604051610b1d93929190611076565b60405180910390a2949350505050565b6003546001600160a01b03163314610b575760405162461bcd60e51b81526004016102ce90610ee0565b6001600160a01b038116600081815260016020908152604091829020805460ff1916905590519182527f215ef528757ca84646fb5c401012a31bcbf1f99487a51e57a57a0c0afa0d3dd291016106bf565b6003546001600160a01b03163314610bd25760405162461bcd60e51b81526004016102ce90610ee0565b6001600160a01b038116600081815260016020818152604092839020805460ff191690921790915590519182527f466d40d3c5afb07f32aa87fa68d587f144c6fee2dfb883b3363937d5427e044291016106bf565b828054828255906000526020600020908101928215610c7c579160200282015b82811115610c7c57825182546001600160a01b0319166001600160a01b03909116178255602090920191600190910190610c47565b50610c88929150610c8c565b5090565b5b80821115610c885760008155600101610c8d565b600060208284031215610cb357600080fd5b5035919050565b6000815180845260005b81811015610ce057602081850181015186830182015201610cc4565b506000602082860101526020601f19601f83011685010191505092915050565b60c081526000610d1360c0830189610cba565b602083018890526001600160a01b038716604084015285151560608401526080830185905282810360a0840152610d4a8185610cba565b9998505050505050505050565b600060208284031215610d6957600080fd5b81356001600160a01b0381168114610d8057600080fd5b9392505050565b60a081526000610d9a60a0830188610cba565b602083018790526001600160a01b038616604084015284151560608401528281036080840152610dca8185610cba565b98975050505050505050565b60008083601f840112610de857600080fd5b50813567ffffffffffffffff811115610e0057600080fd5b602083019150836020828501011115610e1857600080fd5b9250929050565b60008060008060408587031215610e3557600080fd5b843567ffffffffffffffff811115610e4c57600080fd5b610e5887828801610dd6565b909550935050602085013567ffffffffffffffff811115610e7857600080fd5b610e8487828801610dd6565b95989497509550505050565b600181811c90821680610ea457607f821691505b602082108103610ec457634e487b7160e01b600052602260045260246000fd5b50919050565b634e487b7160e01b600052603260045260246000fd5b60208082526022908201527f4f6e6c79206f776e65722063616e20706572666f726d2074686973206163746960408201526137b760f11b606082015260800190565b8385823760609290921b6bffffffffffffffffffffffff1916919092019081526014810191909152603401919050565b634e487b7160e01b600052604160045260246000fd5b601f821115610fb257806000526020600020601f840160051c81016020851015610f8f5750805b601f840160051c820191505b81811015610faf5760008155600101610f9b565b50505b505050565b815167ffffffffffffffff811115610fd157610fd1610f52565b610fe581610fdf8454610e90565b84610f68565b6020601f82116001811461101957600083156110015750848201515b600019600385901b1c1916600184901b178455610faf565b600084815260208120601f198516915b828110156110495787850151825560209485019460019092019101611029565b50848210156110675786840151600019600387901b60f8161c191681555b50505050600190811b01905550565b6040815282604082015282846060830137600060608483018101919091526001600160a01b03929092166020820152601f909201601f19169091010191905056fea26469706673582212205c3a6f4c3477ee84591d9764bfb128bced796f8f4bec14a73c55e6cfeb117e0164736f6c634300081c0033",
          "opcodes": "PUSH1 0x80 PUSH1 0x40 MSTORE CALLVALUE DUP1 ISZERO PUSH1 0xF JUMPI PUSH1 0x0 DUP1 REVERT JUMPDEST POP PUSH1 0x3 DUP1 SLOAD PUSH1 0x1 PUSH1 0x1 PUSH1 0xA0 SHL SUB NOT AND CALLER SWAP1 DUP2 OR SWAP1 SWAP2 SSTORE PUSH1 0x0 SWAP1 DUP2 MSTORE PUSH1 0x1 PUSH1 0x20 DUP2 DUP2 MSTORE PUSH1 0x40 DUP1 DUP5 KECCAK256 DUP1 SLOAD PUSH1 0xFF NOT SWAP1 DUP2 AND DUP6 OR SWAP1 SWAP2 SSTORE PUSH1 0x2 SWAP1 SWAP3 MSTORE SWAP1 SWAP3 KECCAK256 DUP1 SLOAD SWAP1 SWAP3 AND OR SWAP1 SSTORE PUSH2 0x10ED DUP1 PUSH2 0x62 PUSH1 0x0 CODECOPY PUSH1 0x0 RETURN INVALID PUSH1 0x80 PUSH1 0x40 MSTORE CALLVALUE DUP1 ISZERO PUSH2 0x10 JUMPI PUSH1 0x0 DUP1 REVERT JUMPDEST POP PUSH1 0x4 CALLDATASIZE LT PUSH2 0xB4 JUMPI PUSH1 0x0 CALLDATALOAD PUSH1 0xE0 SHR DUP1 PUSH4 0x801D2CF1 GT PUSH2 0x71 JUMPI DUP1 PUSH4 0x801D2CF1 EQ PUSH2 0x1BD JUMPI DUP1 PUSH4 0x8DA5CB5B EQ PUSH2 0x1D0 JUMPI DUP1 PUSH4 0x95961F05 EQ PUSH2 0x1FB JUMPI DUP1 PUSH4 0x9C5BBFCE EQ PUSH2 0x21C JUMPI DUP1 PUSH4 0xB4394A3F EQ PUSH2 0x22F JUMPI DUP1 PUSH4 0xF41189AB EQ PUSH2 0x242 JUMPI PUSH1 0x0 DUP1 REVERT JUMPDEST DUP1 PUSH4 0x13972957 EQ PUSH2 0xB9 JUMPI DUP1 PUSH4 0x1BA395DD EQ PUSH2 0x119 JUMPI DUP1 PUSH4 0x26319833 EQ PUSH2 0x13E JUMPI DUP1 PUSH4 0x3C9F3D04 EQ PUSH2 0x171 JUMPI DUP1 PUSH4 0x50A053CD EQ PUSH2 0x186 JUMPI DUP1 PUSH4 0x51DA8A4F EQ PUSH2 0x199 JUMPI JUMPDEST PUSH1 0x0 DUP1 REVERT JUMPDEST PUSH2 0xF7 PUSH2 0xC7 CALLDATASIZE PUSH1 0x4 PUSH2 0xCA1 JUMP JUMPDEST PUSH1 0x0 SWAP1 DUP2 MSTORE PUSH1 0x20 DUP2 SWAP1 MSTORE PUSH1 0x40 SWAP1 KECCAK256 PUSH1 0x1 DUP2 ADD SLOAD PUSH1 0x2 DUP3 ADD SLOAD PUSH1 0x3 SWAP1 SWAP3 ADD SLOAD SWAP1 ISZERO ISZERO SWAP3 PUSH1 0x1 PUSH1 0xA0 SHL SWAP1 SWAP3 DIV PUSH1 0xFF AND SWAP2 JUMP JUMPDEST PUSH1 0x40 DUP1 MLOAD SWAP4 ISZERO ISZERO DUP5 MSTORE SWAP2 ISZERO ISZERO PUSH1 0x20 DUP5 ADD MSTORE SWAP1 DUP3 ADD MSTORE PUSH1 0x60 ADD JUMPDEST PUSH1 0x40 MLOAD DUP1 SWAP2 SUB SWAP1 RETURN JUMPDEST PUSH2 0x12C PUSH2 0x127 CALLDATASIZE PUSH1 0x4 PUSH2 0xCA1 JUMP JUMPDEST PUSH2 0x265 JUMP JUMPDEST PUSH1 0x40 MLOAD PUSH2 0x110 SWAP7 SWAP6 SWAP5 SWAP4 SWAP3 SWAP2 SWAP1 PUSH2 0xD00 JUMP JUMPDEST PUSH2 0x161 PUSH2 0x14C CALLDATASIZE PUSH1 0x4 PUSH2 0xD57 JUMP JUMPDEST PUSH1 0x2 PUSH1 0x20 MSTORE PUSH1 0x0 SWAP1 DUP2 MSTORE PUSH1 0x40 SWAP1 KECCAK256 SLOAD PUSH1 0xFF AND DUP2 JUMP JUMPDEST PUSH1 0x40 MLOAD SWAP1 ISZERO ISZERO DUP2 MSTORE PUSH1 0x20 ADD PUSH2 0x110 JUMP JUMPDEST PUSH2 0x184 PUSH2 0x17F CALLDATASIZE PUSH1 0x4 PUSH2 0xCA1 JUMP JUMPDEST PUSH2 0x434 JUMP JUMPDEST STOP JUMPDEST PUSH2 0x184 PUSH2 0x194 CALLDATASIZE PUSH1 0x4 PUSH2 0xD57 JUMP JUMPDEST PUSH2 0x645 JUMP JUMPDEST PUSH2 0x1AC PUSH2 0x1A7 CALLDATASIZE PUSH1 0x4 PUSH2 0xCA1 JUMP JUMPDEST PUSH2 0x6CA JUMP JUMPDEST PUSH1 0x40 MLOAD PUSH2 0x110 SWAP6 SWAP5 SWAP4 SWAP3 SWAP2 SWAP1 PUSH2 0xD87 JUMP JUMPDEST PUSH2 0x184 PUSH2 0x1CB CALLDATASIZE PUSH1 0x4 PUSH2 0xD57 JUMP JUMPDEST PUSH2 0x81B JUMP JUMPDEST PUSH1 0x3 SLOAD PUSH2 0x1E3 SWAP1 PUSH1 0x1 PUSH1 0x1 PUSH1 0xA0 SHL SUB AND DUP2 JUMP JUMPDEST PUSH1 0x40 MLOAD PUSH1 0x1 PUSH1 0x1 PUSH1 0xA0 SHL SUB SWAP1 SWAP2 AND DUP2 MSTORE PUSH1 0x20 ADD PUSH2 0x110 JUMP JUMPDEST PUSH2 0x20E PUSH2 0x209 CALLDATASIZE PUSH1 0x4 PUSH2 0xE1F JUMP JUMPDEST PUSH2 0x896 JUMP JUMPDEST PUSH1 0x40 MLOAD SWAP1 DUP2 MSTORE PUSH1 0x20 ADD PUSH2 0x110 JUMP JUMPDEST PUSH2 0x184 PUSH2 0x22A CALLDATASIZE PUSH1 0x4 PUSH2 0xD57 JUMP JUMPDEST PUSH2 0xB2D JUMP JUMPDEST PUSH2 0x184 PUSH2 0x23D CALLDATASIZE PUSH1 0x4 PUSH2 0xD57 JUMP JUMPDEST PUSH2 0xBA8 JUMP JUMPDEST PUSH2 0x161 PUSH2 0x250 CALLDATASIZE PUSH1 0x4 PUSH2 0xD57 JUMP JUMPDEST PUSH1 0x1 PUSH1 0x20 MSTORE PUSH1 0x0 SWAP1 DUP2 MSTORE PUSH1 0x40 SWAP1 KECCAK256 SLOAD PUSH1 0xFF AND DUP2 JUMP JUMPDEST PUSH1 0x60 PUSH1 0x0 DUP1 PUSH1 0x0 DUP1 PUSH1 0x60 PUSH1 0x0 DUP1 PUSH1 0x0 DUP10 DUP2 MSTORE PUSH1 0x20 ADD SWAP1 DUP2 MSTORE PUSH1 0x20 ADD PUSH1 0x0 KECCAK256 SWAP1 POP PUSH1 0x0 DUP2 PUSH1 0x1 ADD SLOAD GT PUSH2 0x2D7 JUMPI PUSH1 0x40 MLOAD PUSH3 0x461BCD PUSH1 0xE5 SHL DUP2 MSTORE PUSH1 0x20 PUSH1 0x4 DUP3 ADD MSTORE PUSH1 0x16 PUSH1 0x24 DUP3 ADD MSTORE PUSH22 0x105C9D1A58DB1948191BD95CC81B9BDD08195E1A5CDD PUSH1 0x52 SHL PUSH1 0x44 DUP3 ADD MSTORE PUSH1 0x64 ADD JUMPDEST PUSH1 0x40 MLOAD DUP1 SWAP2 SUB SWAP1 REVERT JUMPDEST PUSH1 0x1 DUP2 ADD SLOAD PUSH1 0x2 DUP3 ADD SLOAD PUSH1 0x3 DUP4 ADD SLOAD DUP4 SLOAD DUP5 SWAP4 SWAP3 PUSH1 0x1 PUSH1 0x1 PUSH1 0xA0 SHL SUB DUP2 AND SWAP3 PUSH1 0x1 PUSH1 0xA0 SHL SWAP1 SWAP2 DIV PUSH1 0xFF AND SWAP2 PUSH1 0x4 DUP7 ADD SWAP1 DUP7 SWAP1 PUSH2 0x312 SWAP1 PUSH2 0xE90 JUMP JUMPDEST DUP1 PUSH1 0x1F ADD PUSH1 0x20 DUP1 SWAP2 DIV MUL PUSH1 0x20 ADD PUSH1 0x40 MLOAD SWAP1 DUP2 ADD PUSH1 0x40 MSTORE DUP1 SWAP3 SWAP2 SWAP1 DUP2 DUP2 MSTORE PUSH1 0x20 ADD DUP3 DUP1 SLOAD PUSH2 0x33E SWAP1 PUSH2 0xE90 JUMP JUMPDEST DUP1 ISZERO PUSH2 0x38B JUMPI DUP1 PUSH1 0x1F LT PUSH2 0x360 JUMPI PUSH2 0x100 DUP1 DUP4 SLOAD DIV MUL DUP4 MSTORE SWAP2 PUSH1 0x20 ADD SWAP2 PUSH2 0x38B JUMP JUMPDEST DUP3 ADD SWAP2 SWAP1 PUSH1 0x0 MSTORE PUSH1 0x20 PUSH1 0x0 KECCAK256 SWAP1 JUMPDEST DUP2 SLOAD DUP2 MSTORE SWAP1 PUSH1 0x1 ADD SWAP1 PUSH1 0x20 ADD DUP1 DUP4 GT PUSH2 0x36E JUMPI DUP3 SWAP1 SUB PUSH1 0x1F AND DUP3 ADD SWAP2 JUMPDEST POP POP POP POP POP SWAP6 POP DUP1 DUP1 SLOAD PUSH2 0x39E SWAP1 PUSH2 0xE90 JUMP JUMPDEST DUP1 PUSH1 0x1F ADD PUSH1 0x20 DUP1 SWAP2 DIV MUL PUSH1 0x20 ADD PUSH1 0x40 MLOAD SWAP1 DUP2 ADD PUSH1 0x40 MSTORE DUP1 SWAP3 SWAP2 SWAP1 DUP2 DUP2 MSTORE PUSH1 0x20 ADD DUP3 DUP1 SLOAD PUSH2 0x3CA SWAP1 PUSH2 0xE90 JUMP JUMPDEST DUP1 ISZERO PUSH2 0x417 JUMPI DUP1 PUSH1 0x1F LT PUSH2 0x3EC JUMPI PUSH2 0x100 DUP1 DUP4 SLOAD DIV MUL DUP4 MSTORE SWAP2 PUSH1 0x20 ADD SWAP2 PUSH2 0x417 JUMP JUMPDEST DUP3 ADD SWAP2 SWAP1 PUSH1 0x0 MSTORE PUSH1 0x20 PUSH1 0x0 KECCAK256 SWAP1 JUMPDEST DUP2 SLOAD DUP2 MSTORE SWAP1 PUSH1 0x1 ADD SWAP1 PUSH1 0x20 ADD DUP1 DUP4 GT PUSH2 0x3FA JUMPI DUP3 SWAP1 SUB PUSH1 0x1F AND DUP3 ADD SWAP2 JUMPDEST POP POP POP POP POP SWAP1 POP SWAP7 POP SWAP7 POP SWAP7 POP SWAP7 POP SWAP7 POP SWAP7 POP POP SWAP2 SWAP4 SWAP6 POP SWAP2 SWAP4 SWAP6 JUMP JUMPDEST CALLER PUSH1 0x0 SWAP1 DUP2 MSTORE PUSH1 0x2 PUSH1 0x20 MSTORE PUSH1 0x40 SWAP1 KECCAK256 SLOAD PUSH1 0xFF AND PUSH2 0x4AA JUMPI PUSH1 0x40 MLOAD PUSH3 0x461BCD PUSH1 0xE5 SHL DUP2 MSTORE PUSH1 0x20 PUSH1 0x4 DUP3 ADD MSTORE PUSH1 0x2E PUSH1 0x24 DUP3 ADD MSTORE PUSH32 0x4F6E6C792074727573746564207665726966696572732063616E20706572666F PUSH1 0x44 DUP3 ADD MSTORE PUSH14 0x3936903A3434B99030B1BA34B7B7 PUSH1 0x91 SHL PUSH1 0x64 DUP3 ADD MSTORE PUSH1 0x84 ADD PUSH2 0x2CE JUMP JUMPDEST PUSH1 0x0 DUP2 DUP2 MSTORE PUSH1 0x20 DUP2 SWAP1 MSTORE PUSH1 0x40 SWAP1 KECCAK256 PUSH1 0x1 DUP2 ADD SLOAD PUSH2 0x502 JUMPI PUSH1 0x40 MLOAD PUSH3 0x461BCD PUSH1 0xE5 SHL DUP2 MSTORE PUSH1 0x20 PUSH1 0x4 DUP3 ADD MSTORE PUSH1 0x16 PUSH1 0x24 DUP3 ADD MSTORE PUSH22 0x105C9D1A58DB1948191BD95CC81B9BDD08195E1A5CDD PUSH1 0x52 SHL PUSH1 0x44 DUP3 ADD MSTORE PUSH1 0x64 ADD PUSH2 0x2CE JUMP JUMPDEST PUSH1 0x0 DUP1 JUMPDEST PUSH1 0x3 DUP4 ADD SLOAD DUP2 LT ISZERO PUSH2 0x55C JUMPI CALLER PUSH1 0x1 PUSH1 0x1 PUSH1 0xA0 SHL SUB AND DUP4 PUSH1 0x3 ADD DUP3 DUP2 SLOAD DUP2 LT PUSH2 0x531 JUMPI PUSH2 0x531 PUSH2 0xECA JUMP JUMPDEST PUSH1 0x0 SWAP2 DUP3 MSTORE PUSH1 0x20 SWAP1 SWAP2 KECCAK256 ADD SLOAD PUSH1 0x1 PUSH1 0x1 PUSH1 0xA0 SHL SUB AND SUB PUSH2 0x554 JUMPI PUSH1 0x1 SWAP2 POP PUSH2 0x55C JUMP JUMPDEST PUSH1 0x1 ADD PUSH2 0x506 JUMP JUMPDEST POP DUP1 ISZERO PUSH2 0x5BA JUMPI PUSH1 0x40 MLOAD PUSH3 0x461BCD PUSH1 0xE5 SHL DUP2 MSTORE PUSH1 0x20 PUSH1 0x4 DUP3 ADD MSTORE PUSH1 0x26 PUSH1 0x24 DUP3 ADD MSTORE PUSH32 0x596F75206861766520616C726561647920766572696669656420746869732061 PUSH1 0x44 DUP3 ADD MSTORE PUSH6 0x727469636C65 PUSH1 0xD0 SHL PUSH1 0x64 DUP3 ADD MSTORE PUSH1 0x84 ADD PUSH2 0x2CE JUMP JUMPDEST PUSH1 0x3 DUP3 ADD DUP1 SLOAD PUSH1 0x1 DUP2 ADD DUP3 SSTORE PUSH1 0x0 SWAP2 DUP3 MSTORE PUSH1 0x20 SWAP1 SWAP2 KECCAK256 ADD DUP1 SLOAD PUSH1 0x1 PUSH1 0x1 PUSH1 0xA0 SHL SUB NOT AND CALLER OR SWAP1 SSTORE PUSH1 0x2 DUP3 ADD SLOAD PUSH1 0xFF PUSH1 0x1 PUSH1 0xA0 SHL SWAP1 SWAP2 DIV AND PUSH2 0x60B JUMPI PUSH1 0x2 DUP3 ADD DUP1 SLOAD PUSH1 0xFF PUSH1 0xA0 SHL NOT AND PUSH1 0x1 PUSH1 0xA0 SHL OR SWAP1 SSTORE JUMPDEST PUSH1 0x40 MLOAD CALLER DUP2 MSTORE DUP4 SWAP1 PUSH32 0xCB5DC41972394AF24D9F016E1C37EA730F4D736AF180FB2085B2D4A7B15EDE57 SWAP1 PUSH1 0x20 ADD PUSH1 0x40 MLOAD DUP1 SWAP2 SUB SWAP1 LOG2 POP POP POP JUMP JUMPDEST PUSH1 0x3 SLOAD PUSH1 0x1 PUSH1 0x1 PUSH1 0xA0 SHL SUB AND CALLER EQ PUSH2 0x66F JUMPI PUSH1 0x40 MLOAD PUSH3 0x461BCD PUSH1 0xE5 SHL DUP2 MSTORE PUSH1 0x4 ADD PUSH2 0x2CE SWAP1 PUSH2 0xEE0 JUMP JUMPDEST PUSH1 0x1 PUSH1 0x1 PUSH1 0xA0 SHL SUB DUP2 AND PUSH1 0x0 DUP2 DUP2 MSTORE PUSH1 0x2 PUSH1 0x20 SWAP1 DUP2 MSTORE PUSH1 0x40 SWAP2 DUP3 SWAP1 KECCAK256 DUP1 SLOAD PUSH1 0xFF NOT AND PUSH1 0x1 OR SWAP1 SSTORE SWAP1 MLOAD SWAP2 DUP3 MSTORE PUSH32 0x6D05492139C5EA989514A5D2150C028041E5C087E2A39967F67DC7D2655ADB81 SWAP2 ADD JUMPDEST PUSH1 0x40 MLOAD DUP1 SWAP2 SUB SWAP1 LOG1 POP JUMP JUMPDEST PUSH1 0x0 PUSH1 0x20 DUP2 SWAP1 MSTORE SWAP1 DUP2 MSTORE PUSH1 0x40 SWAP1 KECCAK256 DUP1 SLOAD DUP2 SWAP1 PUSH2 0x6E5 SWAP1 PUSH2 0xE90 JUMP JUMPDEST DUP1 PUSH1 0x1F ADD PUSH1 0x20 DUP1 SWAP2 DIV MUL PUSH1 0x20 ADD PUSH1 0x40 MLOAD SWAP1 DUP2 ADD PUSH1 0x40 MSTORE DUP1 SWAP3 SWAP2 SWAP1 DUP2 DUP2 MSTORE PUSH1 0x20 ADD DUP3 DUP1 SLOAD PUSH2 0x711 SWAP1 PUSH2 0xE90 JUMP JUMPDEST DUP1 ISZERO PUSH2 0x75E JUMPI DUP1 PUSH1 0x1F LT PUSH2 0x733 JUMPI PUSH2 0x100 DUP1 DUP4 SLOAD DIV MUL DUP4 MSTORE SWAP2 PUSH1 0x20 ADD SWAP2 PUSH2 0x75E JUMP JUMPDEST DUP3 ADD SWAP2 SWAP1 PUSH1 0x0 MSTORE PUSH1 0x20 PUSH1 0x0 KECCAK256 SWAP1 JUMPDEST DUP2 SLOAD DUP2 MSTORE SWAP1 PUSH1 0x1 ADD SWAP1 PUSH1 0x20 ADD DUP1 DUP4 GT PUSH2 0x741 JUMPI DUP3 SWAP1 SUB PUSH1 0x1F AND DUP3 ADD SWAP2 JUMPDEST POP POP POP POP PUSH1 0x1 DUP4 ADD SLOAD PUSH1 0x2 DUP5 ADD SLOAD PUSH1 0x4 DUP6 ADD DUP1 SLOAD SWAP5 SWAP6 SWAP3 SWAP5 PUSH1 0x1 PUSH1 0x1 PUSH1 0xA0 SHL SUB DUP4 AND SWAP5 POP PUSH1 0x1 PUSH1 0xA0 SHL SWAP1 SWAP3 DIV PUSH1 0xFF AND SWAP3 SWAP2 PUSH2 0x798 SWAP1 PUSH2 0xE90 JUMP JUMPDEST DUP1 PUSH1 0x1F ADD PUSH1 0x20 DUP1 SWAP2 DIV MUL PUSH1 0x20 ADD PUSH1 0x40 MLOAD SWAP1 DUP2 ADD PUSH1 0x40 MSTORE DUP1 SWAP3 SWAP2 SWAP1 DUP2 DUP2 MSTORE PUSH1 0x20 ADD DUP3 DUP1 SLOAD PUSH2 0x7C4 SWAP1 PUSH2 0xE90 JUMP JUMPDEST DUP1 ISZERO PUSH2 0x811 JUMPI DUP1 PUSH1 0x1F LT PUSH2 0x7E6 JUMPI PUSH2 0x100 DUP1 DUP4 SLOAD DIV MUL DUP4 MSTORE SWAP2 PUSH1 0x20 ADD SWAP2 PUSH2 0x811 JUMP JUMPDEST DUP3 ADD SWAP2 SWAP1 PUSH1 0x0 MSTORE PUSH1 0x20 PUSH1 0x0 KECCAK256 SWAP1 JUMPDEST DUP2 SLOAD DUP2 MSTORE SWAP1 PUSH1 0x1 ADD SWAP1 PUSH1 0x20 ADD DUP1 DUP4 GT PUSH2 0x7F4 JUMPI DUP3 SWAP1 SUB PUSH1 0x1F AND DUP3 ADD SWAP2 JUMPDEST POP POP POP POP POP SWAP1 POP DUP6 JUMP JUMPDEST PUSH1 0x3 SLOAD PUSH1 0x1 PUSH1 0x1 PUSH1 0xA0 SHL SUB AND CALLER EQ PUSH2 0x845 JUMPI PUSH1 0x40 MLOAD PUSH3 0x461BCD PUSH1 0xE5 SHL DUP2 MSTORE PUSH1 0x4 ADD PUSH2 0x2CE SWAP1 PUSH2 0xEE0 JUMP JUMPDEST PUSH1 0x1 PUSH1 0x1 PUSH1 0xA0 SHL SUB DUP2 AND PUSH1 0x0 DUP2 DUP2 MSTORE PUSH1 0x2 PUSH1 0x20 SWAP1 DUP2 MSTORE PUSH1 0x40 SWAP2 DUP3 SWAP1 KECCAK256 DUP1 SLOAD PUSH1 0xFF NOT AND SWAP1 SSTORE SWAP1 MLOAD SWAP2 DUP3 MSTORE PUSH32 0x44A3CD4EB5CC5748F6169DF057B1CB2AE4C383E87CD94663C430E095D4CBA424 SWAP2 ADD PUSH2 0x6BF JUMP JUMPDEST CALLER PUSH1 0x0 SWAP1 DUP2 MSTORE PUSH1 0x1 PUSH1 0x20 MSTORE PUSH1 0x40 DUP2 KECCAK256 SLOAD PUSH1 0xFF AND PUSH2 0x90D JUMPI PUSH1 0x40 MLOAD PUSH3 0x461BCD PUSH1 0xE5 SHL DUP2 MSTORE PUSH1 0x20 PUSH1 0x4 DUP3 ADD MSTORE PUSH1 0x2F PUSH1 0x24 DUP3 ADD MSTORE PUSH32 0x4F6E6C792074727573746564207075626C6973686572732063616E2070657266 PUSH1 0x44 DUP3 ADD MSTORE PUSH15 0x37B936903A3434B99030B1BA34B7B7 PUSH1 0x89 SHL PUSH1 0x64 DUP3 ADD MSTORE PUSH1 0x84 ADD PUSH2 0x2CE JUMP JUMPDEST DUP5 DUP5 CALLER TIMESTAMP PUSH1 0x40 MLOAD PUSH1 0x20 ADD PUSH2 0x924 SWAP5 SWAP4 SWAP3 SWAP2 SWAP1 PUSH2 0xF22 JUMP JUMPDEST PUSH1 0x40 DUP1 MLOAD PUSH1 0x1F NOT DUP2 DUP5 SUB ADD DUP2 MSTORE SWAP2 DUP2 MSTORE DUP2 MLOAD PUSH1 0x20 SWAP3 DUP4 ADD KECCAK256 PUSH1 0x0 DUP2 DUP2 MSTORE SWAP3 DUP4 SWAP1 MSTORE SWAP2 KECCAK256 PUSH1 0x1 ADD SLOAD SWAP1 SWAP2 POP ISZERO PUSH2 0x994 JUMPI PUSH1 0x40 MLOAD PUSH3 0x461BCD PUSH1 0xE5 SHL DUP2 MSTORE PUSH1 0x20 PUSH1 0x4 DUP3 ADD MSTORE PUSH1 0x16 PUSH1 0x24 DUP3 ADD MSTORE PUSH22 0x41727469636C6520616C726561647920657869737473 PUSH1 0x50 SHL PUSH1 0x44 DUP3 ADD MSTORE PUSH1 0x64 ADD PUSH2 0x2CE JUMP JUMPDEST PUSH1 0x40 MLOAD DUP1 PUSH1 0xC0 ADD PUSH1 0x40 MSTORE DUP1 DUP7 DUP7 DUP1 DUP1 PUSH1 0x1F ADD PUSH1 0x20 DUP1 SWAP2 DIV MUL PUSH1 0x20 ADD PUSH1 0x40 MLOAD SWAP1 DUP2 ADD PUSH1 0x40 MSTORE DUP1 SWAP4 SWAP3 SWAP2 SWAP1 DUP2 DUP2 MSTORE PUSH1 0x20 ADD DUP4 DUP4 DUP1 DUP3 DUP5 CALLDATACOPY PUSH1 0x0 SWAP3 ADD DUP3 SWAP1 MSTORE POP SWAP4 DUP6 MSTORE POP POP TIMESTAMP PUSH1 0x20 DUP5 ADD MSTORE POP CALLER PUSH1 0x40 DUP4 ADD MSTORE PUSH1 0x60 DUP3 ADD DUP2 SWAP1 MSTORE PUSH1 0x80 SWAP1 SWAP2 ADD SWAP1 PUSH1 0x40 MLOAD SWAP1 DUP1 DUP3 MSTORE DUP1 PUSH1 0x20 MUL PUSH1 0x20 ADD DUP3 ADD PUSH1 0x40 MSTORE DUP1 ISZERO PUSH2 0xA19 JUMPI DUP2 PUSH1 0x20 ADD PUSH1 0x20 DUP3 MUL DUP1 CALLDATASIZE DUP4 CALLDATACOPY ADD SWAP1 POP JUMPDEST POP DUP2 MSTORE PUSH1 0x20 ADD DUP5 DUP5 DUP1 DUP1 PUSH1 0x1F ADD PUSH1 0x20 DUP1 SWAP2 DIV MUL PUSH1 0x20 ADD PUSH1 0x40 MLOAD SWAP1 DUP2 ADD PUSH1 0x40 MSTORE DUP1 SWAP4 SWAP3 SWAP2 SWAP1 DUP2 DUP2 MSTORE PUSH1 0x20 ADD DUP4 DUP4 DUP1 DUP3 DUP5 CALLDATACOPY PUSH1 0x0 SWAP3 ADD DUP3 SWAP1 MSTORE POP SWAP4 SWAP1 SWAP5 MSTORE POP POP DUP4 DUP2 MSTORE PUSH1 0x20 DUP2 SWAP1 MSTORE PUSH1 0x40 SWAP1 KECCAK256 DUP3 MLOAD SWAP1 SWAP2 POP DUP2 SWAP1 PUSH2 0xA74 SWAP1 DUP3 PUSH2 0xFB7 JUMP JUMPDEST POP PUSH1 0x20 DUP3 DUP2 ADD MLOAD PUSH1 0x1 DUP4 ADD SSTORE PUSH1 0x40 DUP4 ADD MLOAD PUSH1 0x2 DUP4 ADD DUP1 SLOAD PUSH1 0x60 DUP7 ADD MLOAD ISZERO ISZERO PUSH1 0x1 PUSH1 0xA0 SHL MUL PUSH1 0x1 PUSH1 0x1 PUSH1 0xA8 SHL SUB NOT SWAP1 SWAP2 AND PUSH1 0x1 PUSH1 0x1 PUSH1 0xA0 SHL SUB SWAP1 SWAP4 AND SWAP3 SWAP1 SWAP3 OR SWAP2 SWAP1 SWAP2 OR SWAP1 SSTORE PUSH1 0x80 DUP4 ADD MLOAD DUP1 MLOAD PUSH2 0xAD0 SWAP3 PUSH1 0x3 DUP6 ADD SWAP3 ADD SWAP1 PUSH2 0xC27 JUMP JUMPDEST POP PUSH1 0xA0 DUP3 ADD MLOAD PUSH1 0x4 DUP3 ADD SWAP1 PUSH2 0xAE5 SWAP1 DUP3 PUSH2 0xFB7 JUMP JUMPDEST POP SWAP1 POP POP DUP1 PUSH32 0xCBA0B57A0D2E79A98E1109C9204223A0FBE2581A15221FBD18CA7AB6F0B18337 DUP7 DUP7 CALLER PUSH1 0x40 MLOAD PUSH2 0xB1D SWAP4 SWAP3 SWAP2 SWAP1 PUSH2 0x1076 JUMP JUMPDEST PUSH1 0x40 MLOAD DUP1 SWAP2 SUB SWAP1 LOG2 SWAP5 SWAP4 POP POP POP POP JUMP JUMPDEST PUSH1 0x3 SLOAD PUSH1 0x1 PUSH1 0x1 PUSH1 0xA0 SHL SUB AND CALLER EQ PUSH2 0xB57 JUMPI PUSH1 0x40 MLOAD PUSH3 0x461BCD PUSH1 0xE5 SHL DUP2 MSTORE PUSH1 0x4 ADD PUSH2 0x2CE SWAP1 PUSH2 0xEE0 JUMP JUMPDEST PUSH1 0x1 PUSH1 0x1 PUSH1 0xA0 SHL SUB DUP2 AND PUSH1 0x0 DUP2 DUP2 MSTORE PUSH1 0x1 PUSH1 0x20 SWAP1 DUP2 MSTORE PUSH1 0x40 SWAP2 DUP3 SWAP1 KECCAK256 DUP1 SLOAD PUSH1 0xFF NOT AND SWAP1 SSTORE SWAP1 MLOAD SWAP2 DUP3 MSTORE PUSH32 0x215EF528757CA84646FB5C401012A31BCBF1F99487A51E57A57A0C0AFA0D3DD2 SWAP2 ADD PUSH2 0x6BF JUMP JUMPDEST PUSH1 0x3 SLOAD PUSH1 0x1 PUSH1 0x1 PUSH1 0xA0 SHL SUB AND CALLER EQ PUSH2 0xBD2 JUMPI PUSH1 0x40 MLOAD PUSH3 0x461BCD PUSH1 0xE5 SHL DUP2 MSTORE PUSH1 0x4 ADD PUSH2 0x2CE SWAP1 PUSH2 0xEE0 JUMP JUMPDEST PUSH1 0x1 PUSH1 0x1 PUSH1 0xA0 SHL SUB DUP2 AND PUSH1 0x0 DUP2 DUP2 MSTORE PUSH1 0x1 PUSH1 0x20 DUP2 DUP2 MSTORE PUSH1 0x40 SWAP3 DUP4 SWAP1 KECCAK256 DUP1 SLOAD PUSH1 0xFF NOT AND SWAP1 SWAP3 OR SWAP1 SWAP2 SSTORE SWAP1 MLOAD SWAP2 DUP3 MSTORE PUSH32 0x466D40D3C5AFB07F32AA87FA68D587F144C6FEE2DFB883B3363937D5427E0442 SWAP2 ADD PUSH2 0x6BF JUMP JUMPDEST DUP3 DUP1 SLOAD DUP3 DUP3 SSTORE SWAP1 PUSH1 0x0 MSTORE PUSH1 0x20 PUSH1 0x0 KECCAK256 SWAP1 DUP2 ADD SWAP3 DUP3 ISZERO PUSH2 0xC7C JUMPI SWAP2 PUSH1 0x20 MUL DUP3 ADD JUMPDEST DUP3 DUP2 GT ISZERO PUSH2 0xC7C JUMPI DUP3 MLOAD DUP3 SLOAD PUSH1 0x1 PUSH1 0x1 PUSH1 0xA0 SHL SUB NOT AND PUSH1 0x1 PUSH1 0x1 PUSH1 0xA0 SHL SUB SWAP1 SWAP2 AND OR DUP3 SSTORE PUSH1 0x20 SWAP1 SWAP3 ADD SWAP2 PUSH1 0x1 SWAP1 SWAP2 ADD SWAP1 PUSH2 0xC47 JUMP JUMPDEST POP PUSH2 0xC88 SWAP3 SWAP2 POP PUSH2 0xC8C JUMP JUMPDEST POP SWAP1 JUMP JUMPDEST JUMPDEST DUP1 DUP3 GT ISZERO PUSH2 0xC88 JUMPI PUSH1 0x0 DUP2 SSTORE PUSH1 0x1 ADD PUSH2 0xC8D JUMP JUMPDEST PUSH1 0x0 PUSH1 0x20 DUP3 DUP5 SUB SLT ISZERO PUSH2 0xCB3 JUMPI PUSH1 0x0 DUP1 REVERT JUMPDEST POP CALLDATALOAD SWAP2 SWAP1 POP JUMP JUMPDEST PUSH1 0x0 DUP2 MLOAD DUP1 DUP5 MSTORE PUSH1 0x0 JUMPDEST DUP2 DUP2 LT ISZERO PUSH2 0xCE0 JUMPI PUSH1 0x20 DUP2 DUP6 ADD DUP2 ADD MLOAD DUP7 DUP4 ADD DUP3 ADD MSTORE ADD PUSH2 0xCC4 JUMP JUMPDEST POP PUSH1 0x0 PUSH1 0x20 DUP3 DUP7 ADD ADD MSTORE PUSH1 0x20 PUSH1 0x1F NOT PUSH1 0x1F DUP4 ADD AND DUP6 ADD ADD SWAP2 POP POP SWAP3 SWAP2 POP POP JUMP JUMPDEST PUSH1 0xC0 DUP2 MSTORE PUSH1 0x0 PUSH2 0xD13 PUSH1 0xC0 DUP4 ADD DUP10 PUSH2 0xCBA JUMP JUMPDEST PUSH1 0x20 DUP4 ADD DUP9 SWAP1 MSTORE PUSH1 0x1 PUSH1 0x1 PUSH1 0xA0 SHL SUB DUP8 AND PUSH1 0x40 DUP5 ADD MSTORE DUP6 ISZERO ISZERO PUSH1 0x60 DUP5 ADD MSTORE PUSH1 0x80 DUP4 ADD DUP6 SWAP1 MSTORE DUP3 DUP2 SUB PUSH1 0xA0 DUP5 ADD MSTORE PUSH2 0xD4A DUP2 DUP6 PUSH2 0xCBA JUMP JUMPDEST SWAP10 SWAP9 POP POP POP POP POP POP POP POP POP JUMP JUMPDEST PUSH1 0x0 PUSH1 0x20 DUP3 DUP5 SUB SLT ISZERO PUSH2 0xD69 JUMPI PUSH1 0x0 DUP1 REVERT JUMPDEST DUP2 CALLDATALOAD PUSH1 0x1 PUSH1 0x1 PUSH1 0xA0 SHL SUB DUP2 AND DUP2 EQ PUSH2 0xD80 JUMPI PUSH1 0x0 DUP1 REVERT JUMPDEST SWAP4 SWAP3 POP POP POP JUMP JUMPDEST PUSH1 0xA0 DUP2 MSTORE PUSH1 0x0 PUSH2 0xD9A PUSH1 0xA0 DUP4 ADD DUP9 PUSH2 0xCBA JUMP JUMPDEST PUSH1 0x20 DUP4 ADD DUP8 SWAP1 MSTORE PUSH1 0x1 PUSH1 0x1 PUSH1 0xA0 SHL SUB DUP7 AND PUSH1 0x40 DUP5 ADD MSTORE DUP5 ISZERO ISZERO PUSH1 0x60 DUP5 ADD MSTORE DUP3 DUP2 SUB PUSH1 0x80 DUP5 ADD MSTORE PUSH2 0xDCA DUP2 DUP6 PUSH2 0xCBA JUMP JUMPDEST SWAP9 SWAP8 POP POP POP POP POP POP POP POP JUMP JUMPDEST PUSH1 0x0 DUP1 DUP4 PUSH1 0x1F DUP5 ADD SLT PUSH2 0xDE8 JUMPI PUSH1 0x0 DUP1 REVERT JUMPDEST POP DUP2 CALLDATALOAD PUSH8 0xFFFFFFFFFFFFFFFF DUP2 GT ISZERO PUSH2 0xE00 JUMPI PUSH1 0x0 DUP1 REVERT JUMPDEST PUSH1 0x20 DUP4 ADD SWAP2 POP DUP4 PUSH1 0x20 DUP3 DUP6 ADD ADD GT ISZERO PUSH2 0xE18 JUMPI PUSH1 0x0 DUP1 REVERT JUMPDEST SWAP3 POP SWAP3 SWAP1 POP JUMP JUMPDEST PUSH1 0x0 DUP1 PUSH1 0x0 DUP1 PUSH1 0x40 DUP6 DUP8 SUB SLT ISZERO PUSH2 0xE35 JUMPI PUSH1 0x0 DUP1 REVERT JUMPDEST DUP5 CALLDATALOAD PUSH8 0xFFFFFFFFFFFFFFFF DUP2 GT ISZERO PUSH2 0xE4C JUMPI PUSH1 0x0 DUP1 REVERT JUMPDEST PUSH2 0xE58 DUP8 DUP3 DUP9 ADD PUSH2 0xDD6 JUMP JUMPDEST SWAP1 SWAP6 POP SWAP4 POP POP PUSH1 0x20 DUP6 ADD CALLDATALOAD PUSH8 0xFFFFFFFFFFFFFFFF DUP2 GT ISZERO PUSH2 0xE78 JUMPI PUSH1 0x0 DUP1 REVERT JUMPDEST PUSH2 0xE84 DUP8 DUP3 DUP9 ADD PUSH2 0xDD6 JUMP JUMPDEST SWAP6 SWAP9 SWAP5 SWAP8 POP SWAP6 POP POP POP POP JUMP JUMPDEST PUSH1 0x1 DUP2 DUP2 SHR SWAP1 DUP3 AND DUP1 PUSH2 0xEA4 JUMPI PUSH1 0x7F DUP3 AND SWAP2 POP JUMPDEST PUSH1 0x20 DUP3 LT DUP2 SUB PUSH2 0xEC4 JUMPI PUSH4 0x4E487B71 PUSH1 0xE0 SHL PUSH1 0x0 MSTORE PUSH1 0x22 PUSH1 0x4 MSTORE PUSH1 0x24 PUSH1 0x0 REVERT JUMPDEST POP SWAP2 SWAP1 POP JUMP JUMPDEST PUSH4 0x4E487B71 PUSH1 0xE0 SHL PUSH1 0x0 MSTORE PUSH1 0x32 PUSH1 0x4 MSTORE PUSH1 0x24 PUSH1 0x0 REVERT JUMPDEST PUSH1 0x20 DUP1 DUP3 MSTORE PUSH1 0x22 SWAP1 DUP3 ADD MSTORE PUSH32 0x4F6E6C79206F776E65722063616E20706572666F726D20746869732061637469 PUSH1 0x40 DUP3 ADD MSTORE PUSH2 0x37B7 PUSH1 0xF1 SHL PUSH1 0x60 DUP3 ADD MSTORE PUSH1 0x80 ADD SWAP1 JUMP JUMPDEST DUP4 DUP6 DUP3 CALLDATACOPY PUSH1 0x60 SWAP3 SWAP1 SWAP3 SHL PUSH12 0xFFFFFFFFFFFFFFFFFFFFFFFF NOT AND SWAP2 SWAP1 SWAP3 ADD SWAP1 DUP2 MSTORE PUSH1 0x14 DUP2 ADD SWAP2 SWAP1 SWAP2 MSTORE PUSH1 0x34 ADD SWAP2 SWAP1 POP JUMP JUMPDEST PUSH4 0x4E487B71 PUSH1 0xE0 SHL PUSH1 0x0 MSTORE PUSH1 0x41 PUSH1 0x4 MSTORE PUSH1 0x24 PUSH1 0x0 REVERT JUMPDEST PUSH1 0x1F DUP3 GT ISZERO PUSH2 0xFB2 JUMPI DUP1 PUSH1 0x0 MSTORE PUSH1 0x20 PUSH1 0x0 KECCAK256 PUSH1 0x1F DUP5 ADD PUSH1 0x5 SHR DUP2 ADD PUSH1 0x20 DUP6 LT ISZERO PUSH2 0xF8F JUMPI POP DUP1 JUMPDEST PUSH1 0x1F DUP5 ADD PUSH1 0x5 SHR DUP3 ADD SWAP2 POP JUMPDEST DUP2 DUP2 LT ISZERO PUSH2 0xFAF JUMPI PUSH1 0x0 DUP2 SSTORE PUSH1 0x1 ADD PUSH2 0xF9B JUMP JUMPDEST POP POP JUMPDEST POP POP POP JUMP JUMPDEST DUP2 MLOAD PUSH8 0xFFFFFFFFFFFFFFFF DUP2 GT ISZERO PUSH2 0xFD1 JUMPI PUSH2 0xFD1 PUSH2 0xF52 JUMP JUMPDEST PUSH2 0xFE5 DUP2 PUSH2 0xFDF DUP5 SLOAD PUSH2 0xE90 JUMP JUMPDEST DUP5 PUSH2 0xF68 JUMP JUMPDEST PUSH1 0x20 PUSH1 0x1F DUP3 GT PUSH1 0x1 DUP2 EQ PUSH2 0x1019 JUMPI PUSH1 0x0 DUP4 ISZERO PUSH2 0x1001 JUMPI POP DUP5 DUP3 ADD MLOAD JUMPDEST PUSH1 0x0 NOT PUSH1 0x3 DUP6 SWAP1 SHL SHR NOT AND PUSH1 0x1 DUP5 SWAP1 SHL OR DUP5 SSTORE PUSH2 0xFAF JUMP JUMPDEST PUSH1 0x0 DUP5 DUP2 MSTORE PUSH1 0x20 DUP2 KECCAK256 PUSH1 0x1F NOT DUP6 AND SWAP2 JUMPDEST DUP3 DUP2 LT ISZERO PUSH2 0x1049 JUMPI DUP8 DUP6 ADD MLOAD DUP3 SSTORE PUSH1 0x20 SWAP5 DUP6 ADD SWAP5 PUSH1 0x1 SWAP1 SWAP3 ADD SWAP2 ADD PUSH2 0x1029 JUMP JUMPDEST POP DUP5 DUP3 LT ISZERO PUSH2 0x1067 JUMPI DUP7 DUP5 ADD MLOAD PUSH1 0x0 NOT PUSH1 0x3 DUP8 SWAP1 SHL PUSH1 0xF8 AND SHR NOT AND DUP2 SSTORE JUMPDEST POP POP POP POP PUSH1 0x1 SWAP1 DUP2 SHL ADD SWAP1 SSTORE POP JUMP JUMPDEST PUSH1 0x40 DUP2 MSTORE DUP3 PUSH1 0x40 DUP3 ADD MSTORE DUP3 DUP5 PUSH1 0x60 DUP4 ADD CALLDATACOPY PUSH1 0x0 PUSH1 0x60 DUP5 DUP4 ADD DUP2 ADD SWAP2 SWAP1 SWAP2 MSTORE PUSH1 0x1 PUSH1 0x1 PUSH1 0xA0 SHL SUB SWAP3 SWAP1 SWAP3 AND PUSH1 0x20 DUP3 ADD MSTORE PUSH1 0x1F SWAP1 SWAP3 ADD PUSH1 0x1F NOT AND SWAP1 SWAP2 ADD ADD SWAP2 SWAP1 POP JUMP INVALID LOG2 PUSH5 0x6970667358 0x22 SLT KECCAK256 TLOAD GASPRICE PUSH16 0x4C3477EE84591D9764BFB128BCED796F DUP16 0x4B 0xEC EQ 0xA7 EXTCODECOPY SSTORE 0xE6 0xCF 0xEB GT PUSH31 0x164736F6C634300081C003300000000000000000000000000000000000000 "
        },
        "methodIdentifiers": {
          "addTrustedPublisher(address)": "b4394a3f",
          "addTrustedVerifier(address)": "50a053cd",
          "articles(bytes32)": "51da8a4f",
          "checkArticleVerification(bytes32)": "13972957",
          "getArticle(bytes32)": "1ba395dd",
          "owner()": "8da5cb5b",
          "publishArticle(string,string)": "95961f05",
          "removeTrustedPublisher(address)": "9c5bbfce",
          "removeTrustedVerifier(address)": "801d2cf1",
          "trustedPublishers(address)": "f41189ab",
          "trustedVerifiers(address)": "26319833",
          "verifyArticle(bytes32)": "3c9f3d04"
        }
      }
    }
  }
}