{
    "_format": "hh-sol-artifact-1",
    "contractName": "NewsVerifier",
    "sourceName": "contracts/NewsVerifier.sol",
    "abi": [
        {
            "inputs": [],
            "stateMutability": "nonpayable",
            "type": "constructor"
        },
        {
            "anonymous": false,
            "inputs": [
                {
                    "indexed": true,
                    "internalType": "bytes32",
                    "name": "articleId",
                    "type": "bytes32"
                },
                {
                    "indexed": false,
                    "internalType": "string",
                    "name": "contentHash",
                    "type": "string"
                },
                {
                    "indexed": false,
                    "internalType": "address",
                    "name": "publisher",
                    "type": "address"
                }
            ],
            "name": "ArticlePublished",
            "type": "event"
        },
        {
            "anonymous": false,
            "inputs": [
                {
                    "indexed": true,
                    "internalType": "bytes32",
                    "name": "articleId",
                    "type": "bytes32"
                },
                {
                    "indexed": false,
                    "internalType": "address",
                    "name": "verifier",
                    "type": "address"
                }
            ],
            "name": "ArticleVerified",
            "type": "event"
        },
        {
            "anonymous": false,
            "inputs": [
                {
                    "indexed": false,
                    "internalType": "address",
                    "name": "publisher",
                    "type": "address"
                }
            ],
            "name": "PublisherAdded",
            "type": "event"
        },
        {
            "anonymous": false,
            "inputs": [
                {
                    "indexed": false,
                    "internalType": "address",
                    "name": "publisher",
                    "type": "address"
                }
            ],
            "name": "PublisherRemoved",
            "type": "event"
        },
        {
            "anonymous": false,
            "inputs": [
                {
                    "indexed": false,
                    "internalType": "address",
                    "name": "verifier",
                    "type": "address"
                }
            ],
            "name": "VerifierAdded",
            "type": "event"
        },
        {
            "anonymous": false,
            "inputs": [
                {
                    "indexed": false,
                    "internalType": "address",
                    "name": "verifier",
                    "type": "address"
                }
            ],
            "name": "VerifierRemoved",
            "type": "event"
        },
        {
            "inputs": [
                {
                    "internalType": "address",
                    "name": "_publisher",
                    "type": "address"
                }
            ],
            "name": "addTrustedPublisher",
            "outputs": [],
            "stateMutability": "nonpayable",
            "type": "function"
        },
        {
            "inputs": [
                {
                    "internalType": "address",
                    "name": "_verifier",
                    "type": "address"
                }
            ],
            "name": "addTrustedVerifier",
            "outputs": [],
            "stateMutability": "nonpayable",
            "type": "function"
        },
        {
            "inputs": [
                {
                    "internalType": "bytes32",
                    "name": "",
                    "type": "bytes32"
                }
            ],
            "name": "articles",
            "outputs": [
                {
                    "internalType": "string",
                    "name": "contentHash",
                    "type": "string"
                },
                {
                    "internalType": "uint256",
                    "name": "timestamp",
                    "type": "uint256"
                },
                {
                    "internalType": "address",
                    "name": "publisher",
                    "type": "address"
                },
                {
                    "internalType": "bool",
                    "name": "isVerified",
                    "type": "bool"
                },
                {
                    "internalType": "string",
                    "name": "metadataURI",
                    "type": "string"
                }
            ],
            "stateMutability": "view",
            "type": "function"
        },
        {
            "inputs": [
                {
                    "internalType": "bytes32",
                    "name": "_articleId",
                    "type": "bytes32"
                }
            ],
            "name": "checkArticleVerification",
            "outputs": [
                {
                    "internalType": "bool",
                    "name": "exists",
                    "type": "bool"
                },
                {
                    "internalType": "bool",
                    "name": "isVerified",
                    "type": "bool"
                },
                {
                    "internalType": "uint256",
                    "name": "verifierCount",
                    "type": "uint256"
                }
            ],
            "stateMutability": "view",
            "type": "function"
        },
        {
            "inputs": [
                {
                    "internalType": "bytes32",
                    "name": "_articleId",
                    "type": "bytes32"
                }
            ],
            "name": "getArticle",
            "outputs": [
                {
                    "internalType": "string",
                    "name": "contentHash",
                    "type": "string"
                },
                {
                    "internalType": "uint256",
                    "name": "timestamp",
                    "type": "uint256"
                },
                {
                    "internalType": "address",
                    "name": "publisher",
                    "type": "address"
                },
                {
                    "internalType": "bool",
                    "name": "isVerified",
                    "type": "bool"
                },
                {
                    "internalType": "uint256",
                    "name": "verifierCount",
                    "type": "uint256"
                },
                {
                    "internalType": "string",
                    "name": "metadataURI",
                    "type": "string"
                }
            ],
            "stateMutability": "view",
            "type": "function"
        },
        {
            "inputs": [],
            "name": "owner",
            "outputs": [
                {
                    "internalType": "address",
                    "name": "",
                    "type": "address"
                }
            ],
            "stateMutability": "view",
            "type": "function"
        },
        {
            "inputs": [
                {
                    "internalType": "string",
                    "name": "_contentHash",
                    "type": "string"
                },
                {
                    "internalType": "string",
                    "name": "_metadataURI",
                    "type": "string"
                }
            ],
            "name": "publishArticle",
            "outputs": [
                {
                    "internalType": "bytes32",
                    "name": "articleId",
                    "type": "bytes32"
                }
            ],
            "stateMutability": "nonpayable",
            "type": "function"
        },
        {
            "inputs": [
                {
                    "internalType": "address",
                    "name": "_publisher",
                    "type": "address"
                }
            ],
            "name": "removeTrustedPublisher",
            "outputs": [],
            "stateMutability": "nonpayable",
            "type": "function"
        },
        {
            "inputs": [
                {
                    "internalType": "address",
                    "name": "_verifier",
                    "type": "address"
                }
            ],
            "name": "removeTrustedVerifier",
            "outputs": [],
            "stateMutability": "nonpayable",
            "type": "function"
        },
        {
            "inputs": [
                {
                    "internalType": "address",
                    "name": "",
                    "type": "address"
                }
            ],
            "name": "trustedPublishers",
            "outputs": [
                {
                    "internalType": "bool",
                    "name": "",
                    "type": "bool"
                }
            ],
            "stateMutability": "view",
            "type": "function"
        },
        {
            "inputs": [
                {
                    "internalType": "address",
                    "name": "",
                    "type": "address"
                }
            ],
            "name": "trustedVerifiers",
            "outputs": [
                {
                    "internalType": "bool",
                    "name": "",
                    "type": "bool"
                }
            ],
            "stateMutability": "view",
            "type": "function"
        },
        {
            "inputs": [
                {
                    "internalType": "bytes32",
                    "name": "_articleId",
                    "type": "bytes32"
                }
            ],
            "name": "verifyArticle",
            "outputs": [],
            "stateMutability": "nonpayable",
            "type": "function"
        }
    ],
    "bytecode": "0x6080604052348015600f57600080fd5b50600380546001600160a01b031916339081179091556000908152600160208181526040808420805460ff199081168517909155600290925290922080549092161790556110ed806100626000396000f3fe608060405234801561001057600080fd5b50600436106100b45760003560e01c8063801d2cf111610071578063801d2cf1146101bd5780638da5cb5b146101d057806395961f05146101fb5780639c5bbfce1461021c578063b4394a3f1461022f578063f41189ab1461024257600080fd5b806313972957146100b95780631ba395dd14610119578063263198331461013e5780633c9f3d041461017157806350a053cd1461018657806351da8a4f14610199575b600080fd5b6100f76100c7366004610ca1565b60009081526020819052604090206001810154600282015460039092015490151592600160a01b90920460ff1691565b6040805193151584529115156020840152908201526060015b60405180910390f35b61012c610127366004610ca1565b610265565b60405161011096959493929190610d00565b61016161014c366004610d57565b60026020526000908152604090205460ff1681565b6040519015158152602001610110565b61018461017f366004610ca1565b610434565b005b610184610194366004610d57565b610645565b6101ac6101a7366004610ca1565b6106ca565b604051610110959493929190610d87565b6101846101cb366004610d57565b61081b565b6003546101e3906001600160a01b031681565b6040516001600160a01b039091168152602001610110565b61020e610209366004610e1f565b610896565b604051908152602001610110565b61018461022a366004610d57565b610b2d565b61018461023d366004610d57565b610ba8565b610161610250366004610d57565b60016020526000908152604090205460ff1681565b606060008060008060606000806000898152602001908152602001600020905060008160010154116102d75760405162461bcd60e51b8152602060048201526016602482015275105c9d1a58db1948191bd95cc81b9bdd08195e1a5cdd60521b60448201526064015b60405180910390fd5b60018101546002820154600383015483548493926001600160a01b03811692600160a01b90910460ff16916004860190869061031290610e90565b80601f016020809104026020016040519081016040528092919081815260200182805461033e90610e90565b801561038b5780601f106103605761010080835404028352916020019161038b565b820191906000526020600020905b81548152906001019060200180831161036e57829003601f168201915b5050505050955080805461039e90610e90565b80601f01602080910402602001604051908101604052809291908181526020018280546103ca90610e90565b80156104175780601f106103ec57610100808354040283529160200191610417565b820191906000526020600020905b8154815290600101906020018083116103fa57829003601f168201915b505050505090509650965096509650965096505091939550919395565b3360009081526002602052604090205460ff166104aa5760405162461bcd60e51b815260206004820152602e60248201527f4f6e6c792074727573746564207665726966696572732063616e20706572666f60448201526d3936903a3434b99030b1ba34b7b760911b60648201526084016102ce565b600081815260208190526040902060018101546105025760405162461bcd60e51b8152602060048201526016602482015275105c9d1a58db1948191bd95cc81b9bdd08195e1a5cdd60521b60448201526064016102ce565b6000805b600383015481101561055c57336001600160a01b031683600301828154811061053157610531610eca565b6000918252602090912001546001600160a01b031603610554576001915061055c565b600101610506565b5080156105ba5760405162461bcd60e51b815260206004820152602660248201527f596f75206861766520616c726561647920766572696669656420746869732061604482015265727469636c6560d01b60648201526084016102ce565b600382018054600181018255600091825260209091200180546001600160a01b03191633179055600282015460ff600160a01b9091041661060b5760028201805460ff60a01b1916600160a01b1790555b60405133815283907fcb5dc41972394af24d9f016e1c37ea730f4d736af180fb2085b2d4a7b15ede579060200160405180910390a2505050565b6003546001600160a01b0316331461066f5760405162461bcd60e51b81526004016102ce90610ee0565b6001600160a01b038116600081815260026020908152604091829020805460ff1916600117905590519182527f6d05492139c5ea989514a5d2150c028041e5c087e2a39967f67dc7d2655adb8191015b60405180910390a150565b6000602081905290815260409020805481906106e590610e90565b80601f016020809104026020016040519081016040528092919081815260200182805461071190610e90565b801561075e5780601f106107335761010080835404028352916020019161075e565b820191906000526020600020905b81548152906001019060200180831161074157829003601f168201915b5050505060018301546002840154600485018054949592946001600160a01b0383169450600160a01b90920460ff16929161079890610e90565b80601f01602080910402602001604051908101604052809291908181526020018280546107c490610e90565b80156108115780601f106107e657610100808354040283529160200191610811565b820191906000526020600020905b8154815290600101906020018083116107f457829003601f168201915b5050505050905085565b6003546001600160a01b031633146108455760405162461bcd60e51b81526004016102ce90610ee0565b6001600160a01b038116600081815260026020908152604091829020805460ff1916905590519182527f44a3cd4eb5cc5748f6169df057b1cb2ae4c383e87cd94663c430e095d4cba42491016106bf565b3360009081526001602052604081205460ff1661090d5760405162461bcd60e51b815260206004820152602f60248201527f4f6e6c792074727573746564207075626c6973686572732063616e207065726660448201526e37b936903a3434b99030b1ba34b7b760891b60648201526084016102ce565b848433426040516020016109249493929190610f22565b60408051601f198184030181529181528151602092830120600081815292839052912060010154909150156109945760405162461bcd60e51b815260206004820152601660248201527541727469636c6520616c72656164792065786973747360501b60448201526064016102ce565b6040518060c0016040528086868080601f016020809104026020016040519081016040528093929190818152602001838380828437600092018290525093855250504260208401525033604083015260608201819052608090910190604051908082528060200260200182016040528015610a19578160200160208202803683370190505b50815260200184848080601f016020809104026020016040519081016040528093929190818152602001838380828437600092018290525093909452505083815260208190526040902082519091508190610a749082610fb7565b506020828101516001830155604083015160028301805460608601511515600160a01b026001600160a81b03199091166001600160a01b039093169290921791909117905560808301518051610ad09260038501920190610c27565b5060a08201516004820190610ae59082610fb7565b50905050807fcba0b57a0d2e79a98e1109c9204223a0fbe2581a15221fbd18ca7ab6f0b18337868633604051610b1d93929190611076565b60405180910390a2949350505050565b6003546001600160a01b03163314610b575760405162461bcd60e51b81526004016102ce90610ee0565b6001600160a01b038116600081815260016020908152604091829020805460ff1916905590519182527f215ef528757ca84646fb5c401012a31bcbf1f99487a51e57a57a0c0afa0d3dd291016106bf565b6003546001600160a01b03163314610bd25760405162461bcd60e51b81526004016102ce90610ee0565b6001600160a01b038116600081815260016020818152604092839020805460ff191690921790915590519182527f466d40d3c5afb07f32aa87fa68d587f144c6fee2dfb883b3363937d5427e044291016106bf565b828054828255906000526020600020908101928215610c7c579160200282015b82811115610c7c57825182546001600160a01b0319166001600160a01b03909116178255602090920191600190910190610c47565b50610c88929150610c8c565b5090565b5b80821115610c885760008155600101610c8d565b600060208284031215610cb357600080fd5b5035919050565b6000815180845260005b81811015610ce057602081850181015186830182015201610cc4565b506000602082860101526020601f19601f83011685010191505092915050565b60c081526000610d1360c0830189610cba565b602083018890526001600160a01b038716604084015285151560608401526080830185905282810360a0840152610d4a8185610cba565b9998505050505050505050565b600060208284031215610d6957600080fd5b81356001600160a01b0381168114610d8057600080fd5b9392505050565b60a081526000610d9a60a0830188610cba565b602083018790526001600160a01b038616604084015284151560608401528281036080840152610dca8185610cba565b98975050505050505050565b60008083601f840112610de857600080fd5b50813567ffffffffffffffff811115610e0057600080fd5b602083019150836020828501011115610e1857600080fd5b9250929050565b60008060008060408587031215610e3557600080fd5b843567ffffffffffffffff811115610e4c57600080fd5b610e5887828801610dd6565b909550935050602085013567ffffffffffffffff811115610e7857600080fd5b610e8487828801610dd6565b95989497509550505050565b600181811c90821680610ea457607f821691505b602082108103610ec457634e487b7160e01b600052602260045260246000fd5b50919050565b634e487b7160e01b600052603260045260246000fd5b60208082526022908201527f4f6e6c79206f776e65722063616e20706572666f726d2074686973206163746960408201526137b760f11b606082015260800190565b8385823760609290921b6bffffffffffffffffffffffff1916919092019081526014810191909152603401919050565b634e487b7160e01b600052604160045260246000fd5b601f821115610fb257806000526020600020601f840160051c81016020851015610f8f5750805b601f840160051c820191505b81811015610faf5760008155600101610f9b565b50505b505050565b815167ffffffffffffffff811115610fd157610fd1610f52565b610fe581610fdf8454610e90565b84610f68565b6020601f82116001811461101957600083156110015750848201515b600019600385901b1c1916600184901b178455610faf565b600084815260208120601f198516915b828110156110495787850151825560209485019460019092019101611029565b50848210156110675786840151600019600387901b60f8161c191681555b50505050600190811b01905550565b6040815282604082015282846060830137600060608483018101919091526001600160a01b03929092166020820152601f909201601f19169091010191905056fea26469706673582212205c3a6f4c3477ee84591d9764bfb128bced796f8f4bec14a73c55e6cfeb117e0164736f6c634300081c0033",
    "linkReferences": {},
    "deployedLinkReferences": {}
}