{
  "_format": "hh-sol-artifact-1",
  "contractName": "NewsVerifier",
  "sourceName": "contracts/NewsVerifier.sol",
  "abi": [
    {
      "inputs": [],
      "stateMutability": "nonpayable",
      "type": "constructor"
    },
    {
      "anonymous": false,
      "inputs": [
        {
          "indexed": true,
          "internalType": "string",
          "name": "contentHash",
          "type": "string"
        },
        {
          "indexed": false,
          "internalType": "address",
          "name": "publisher",
          "type": "address"
        }
      ],
      "name": "ArticlePublished",
      "type": "event"
    },
    {
      "anonymous": false,
      "inputs": [
        {
          "indexed": true,
          "internalType": "string",
          "name": "contentHash",
          "type": "string"
        },
        {
          "indexed": false,
          "internalType": "address",
          "name": "verifier",
          "type": "address"
        }
      ],
      "name": "ArticleVerified",
      "type": "event"
    },
    {
      "anonymous": false,
      "inputs": [
        {
          "indexed": false,
          "internalType": "address",
          "name": "publisher",
          "type": "address"
        }
      ],
      "name": "PublisherAdded",
      "type": "event"
    },
    {
      "anonymous": false,
      "inputs": [
        {
          "indexed": false,
          "internalType": "address",
          "name": "publisher",
          "type": "address"
        }
      ],
      "name": "PublisherRemoved",
      "type": "event"
    },
    {
      "anonymous": false,
      "inputs": [
        {
          "indexed": false,
          "internalType": "address",
          "name": "verifier",
          "type": "address"
        }
      ],
      "name": "VerifierAdded",
      "type": "event"
    },
    {
      "anonymous": false,
      "inputs": [
        {
          "indexed": false,
          "internalType": "address",
          "name": "verifier",
          "type": "address"
        }
      ],
      "name": "VerifierRemoved",
      "type": "event"
    },
    {
      "inputs": [
        {
          "internalType": "address",
          "name": "_publisher",
          "type": "address"
        }
      ],
      "name": "addTrustedPublisher",
      "outputs": [],
      "stateMutability": "nonpayable",
      "type": "function"
    },
    {
      "inputs": [
        {
          "internalType": "address",
          "name": "_verifier",
          "type": "address"
        }
      ],
      "name": "addTrustedVerifier",
      "outputs": [],
      "stateMutability": "nonpayable",
      "type": "function"
    },
    {
      "inputs": [
        {
          "internalType": "string",
          "name": "",
          "type": "string"
        }
      ],
      "name": "articles",
      "outputs": [
        {
          "internalType": "uint256",
          "name": "timestamp",
          "type": "uint256"
        },
        {
          "internalType": "address",
          "name": "publisher",
          "type": "address"
        },
        {
          "internalType": "bool",
          "name": "isVerified",
          "type": "bool"
        },
        {
          "internalType": "string",
          "name": "metadataURI",
          "type": "string"
        }
      ],
      "stateMutability": "view",
      "type": "function"
    },
    {
      "inputs": [
        {
          "internalType": "string",
          "name": "_contentHash",
          "type": "string"
        }
      ],
      "name": "checkArticleVerification",
      "outputs": [
        {
          "internalType": "bool",
          "name": "exists",
          "type": "bool"
        },
        {
          "internalType": "bool",
          "name": "isVerified",
          "type": "bool"
        },
        {
          "internalType": "uint256",
          "name": "verifierCount",
          "type": "uint256"
        }
      ],
      "stateMutability": "view",
      "type": "function"
    },
    {
      "inputs": [],
      "name": "owner",
      "outputs": [
        {
          "internalType": "address",
          "name": "",
          "type": "address"
        }
      ],
      "stateMutability": "view",
      "type": "function"
    },
    {
      "inputs": [
        {
          "internalType": "string",
          "name": "_contentHash",
          "type": "string"
        },
        {
          "internalType": "string",
          "name": "_metadataURI",
          "type": "string"
        }
      ],
      "name": "publishArticle",
      "outputs": [],
      "stateMutability": "nonpayable",
      "type": "function"
    },
    {
      "inputs": [
        {
          "internalType": "address",
          "name": "_publisher",
          "type": "address"
        }
      ],
      "name": "removeTrustedPublisher",
      "outputs": [],
      "stateMutability": "nonpayable",
      "type": "function"
    },
    {
      "inputs": [
        {
          "internalType": "address",
          "name": "_verifier",
          "type": "address"
        }
      ],
      "name": "removeTrustedVerifier",
      "outputs": [],
      "stateMutability": "nonpayable",
      "type": "function"
    },
    {
      "inputs": [
        {
          "internalType": "address",
          "name": "",
          "type": "address"
        }
      ],
      "name": "trustedPublishers",
      "outputs": [
        {
          "internalType": "bool",
          "name": "",
          "type": "bool"
        }
      ],
      "stateMutability": "view",
      "type": "function"
    },
    {
      "inputs": [
        {
          "internalType": "address",
          "name": "",
          "type": "address"
        }
      ],
      "name": "trustedVerifiers",
      "outputs": [
        {
          "internalType": "bool",
          "name": "",
          "type": "bool"
        }
      ],
      "stateMutability": "view",
      "type": "function"
    },
    {
      "inputs": [
        {
          "internalType": "string",
          "name": "_contentHash",
          "type": "string"
        }
      ],
      "name": "verifyArticle",
      "outputs": [],
      "stateMutability": "nonpayable",
      "type": "function"
    }
  ],
  "bytecode": "0x6080604052348015600f57600080fd5b50600380546001600160a01b031916339081179091556000908152600160208181526040808420805460ff19908116851790915560029092529092208054909216179055610ec3806100626000396000f3fe608060405234801561001057600080fd5b50600436106100a95760003560e01c8063801d2cf111610071578063801d2cf1146101615780638da5cb5b1461017457806395961f051461019f5780639c5bbfce146101b2578063b4394a3f146101c5578063f41189ab146101d857600080fd5b806326319833146100ae5780632b40c794146100e657806350a053cd146100fb57806373f1b6f11461010e5780637c702b8d1461013e575b600080fd5b6100d16100bc366004610a75565b60026020526000908152604090205460ff1681565b60405190151581526020015b60405180910390f35b6100f96100f4366004610aee565b6101fb565b005b6100f9610109366004610a75565b61042d565b61012161011c366004610aee565b6104b2565b6040805193151584529115156020840152908201526060016100dd565b61015161014c366004610b46565b610503565b6040516100dd9493929190610bff565b6100f961016f366004610a75565b6105d1565b600354610187906001600160a01b031681565b6040516001600160a01b0390911681526020016100dd565b6100f96101ad366004610c6c565b61064c565b6100f96101c0366004610a75565b610901565b6100f96101d3366004610a75565b61097c565b6100d16101e6366004610a75565b60016020526000908152604090205460ff1681565b3360009081526002602052604090205460ff166102765760405162461bcd60e51b815260206004820152602e60248201527f4f6e6c792074727573746564207665726966696572732063616e20706572666f60448201526d3936903a3434b99030b1ba34b7b760911b60648201526084015b60405180910390fd5b6000808383604051610289929190610cdd565b9081526020016040518091039020905060008160000154116102e65760405162461bcd60e51b8152602060048201526016602482015275105c9d1a58db1948191bd95cc81b9bdd08195e1a5cdd60521b604482015260640161026d565b60005b600282015481101561038d57336001600160a01b031682600201828154811061031457610314610ced565b6000918252602090912001546001600160a01b0316036103855760405162461bcd60e51b815260206004820152602660248201527f596f75206861766520616c726561647920766572696669656420746869732061604482015265727469636c6560d01b606482015260840161026d565b6001016102e9565b5060028101805460018181018355600092835260209092200180546001600160a01b0319163317905581015460ff600160a01b909104166103de5760018101805460ff60a01b1916600160a01b1790555b82826040516103ee929190610cdd565b604051908190038120338252907f1563109ff9e2e9d178bb10bc1c1cfb90d9bb9136f834a556a56a81ea4be3b7209060200160405180910390a2505050565b6003546001600160a01b031633146104575760405162461bcd60e51b815260040161026d90610d03565b6001600160a01b038116600081815260026020908152604091829020805460ff1916600117905590519182527f6d05492139c5ea989514a5d2150c028041e5c087e2a39967f67dc7d2655adb8191015b60405180910390a150565b600080600080600086866040516104ca929190610cdd565b908152604051908190036020019020805460018201546002909201549015159860ff600160a01b90930492909216975095509350505050565b805160208183018101805160008252928201919093012091528054600182015460038301805492936001600160a01b03831693600160a01b90930460ff169290919061054e90610d45565b80601f016020809104026020016040519081016040528092919081815260200182805461057a90610d45565b80156105c75780601f1061059c576101008083540402835291602001916105c7565b820191906000526020600020905b8154815290600101906020018083116105aa57829003601f168201915b5050505050905084565b6003546001600160a01b031633146105fb5760405162461bcd60e51b815260040161026d90610d03565b6001600160a01b038116600081815260026020908152604091829020805460ff1916905590519182527f44a3cd4eb5cc5748f6169df057b1cb2ae4c383e87cd94663c430e095d4cba42491016104a7565b3360009081526001602052604090205460ff166106c35760405162461bcd60e51b815260206004820152602f60248201527f4f6e6c792074727573746564207075626c6973686572732063616e207065726660448201526e37b936903a3434b99030b1ba34b7b760891b606482015260840161026d565b826107105760405162461bcd60e51b815260206004820152601c60248201527f436f6e74656e7420686173682063616e6e6f7420626520656d70747900000000604482015260640161026d565b60008484604051610722929190610cdd565b90815260405190819003602001902054156107955760405162461bcd60e51b815260206004820152602d60248201527f41727469636c652077697468207468697320636f6e74656e742068617368206160448201526c6c72656164792065786973747360981b606482015260840161026d565b6040805160a08101825242815233602082015260009181018290529060608201906040519080825280602002602001820160405280156107df578160200160208202803683370190505b50815260200183838080601f01602080910402602001604051908101604052809392919081815260200183838082843760009201829052509390945250506040519091506108309087908790610cdd565b90815260408051602092819003830190208351815583830151600182018054938601516001600160a01b039092166001600160a81b031990941693909317600160a01b9115159190910217909155606083015180519192610899926002850192909101906109fb565b50608082015160038201906108ae9082610dce565b50506040516108c1915085908590610cdd565b604051908190038120338252907f11e4c9c3559d9aa7b787ac19765fbbc5a06fe6388eab5ca9e0e8d3542529c1f49060200160405180910390a250505050565b6003546001600160a01b0316331461092b5760405162461bcd60e51b815260040161026d90610d03565b6001600160a01b038116600081815260016020908152604091829020805460ff1916905590519182527f215ef528757ca84646fb5c401012a31bcbf1f99487a51e57a57a0c0afa0d3dd291016104a7565b6003546001600160a01b031633146109a65760405162461bcd60e51b815260040161026d90610d03565b6001600160a01b038116600081815260016020818152604092839020805460ff191690921790915590519182527f466d40d3c5afb07f32aa87fa68d587f144c6fee2dfb883b3363937d5427e044291016104a7565b828054828255906000526020600020908101928215610a50579160200282015b82811115610a5057825182546001600160a01b0319166001600160a01b03909116178255602090920191600190910190610a1b565b50610a5c929150610a60565b5090565b5b80821115610a5c5760008155600101610a61565b600060208284031215610a8757600080fd5b81356001600160a01b0381168114610a9e57600080fd5b9392505050565b60008083601f840112610ab757600080fd5b50813567ffffffffffffffff811115610acf57600080fd5b602083019150836020828501011115610ae757600080fd5b9250929050565b60008060208385031215610b0157600080fd5b823567ffffffffffffffff811115610b1857600080fd5b610b2485828601610aa5565b90969095509350505050565b634e487b7160e01b600052604160045260246000fd5b600060208284031215610b5857600080fd5b813567ffffffffffffffff811115610b6f57600080fd5b8201601f81018413610b8057600080fd5b803567ffffffffffffffff811115610b9a57610b9a610b30565b604051601f8201601f19908116603f0116810167ffffffffffffffff81118282101715610bc957610bc9610b30565b604052818152828201602001861015610be157600080fd5b81602084016020830137600091810160200191909152949350505050565b84815260018060a01b03841660208201528215156040820152608060608201526000825180608084015260005b81811015610c4957602081860181015160a0868401015201610c2c565b50600060a0828501015260a0601f19601f83011684010191505095945050505050565b60008060008060408587031215610c8257600080fd5b843567ffffffffffffffff811115610c9957600080fd5b610ca587828801610aa5565b909550935050602085013567ffffffffffffffff811115610cc557600080fd5b610cd187828801610aa5565b95989497509550505050565b8183823760009101908152919050565b634e487b7160e01b600052603260045260246000fd5b60208082526022908201527f4f6e6c79206f776e65722063616e20706572666f726d2074686973206163746960408201526137b760f11b606082015260800190565b600181811c90821680610d5957607f821691505b602082108103610d7957634e487b7160e01b600052602260045260246000fd5b50919050565b601f821115610dc957806000526020600020601f840160051c81016020851015610da65750805b601f840160051c820191505b81811015610dc65760008155600101610db2565b50505b505050565b815167ffffffffffffffff811115610de857610de8610b30565b610dfc81610df68454610d45565b84610d7f565b6020601f821160018114610e305760008315610e185750848201515b600019600385901b1c1916600184901b178455610dc6565b600084815260208120601f198516915b82811015610e605787850151825560209485019460019092019101610e40565b5084821015610e7e5786840151600019600387901b60f8161c191681555b50505050600190811b0190555056fea2646970667358221220fe95771e974ff7520ae0e5593cd80443f56f2871576d2315bebdc4a5be84691664736f6c634300081c0033",
  "linkReferences": {},
  "deployedLinkReferences": {}
}